{
    "sloadGasCost_d0g0v0_Istanbul": {
        "_info": {
            "comment": "",
            "filling-rpc-server": "Geth-1.9.6-unstable-63b18027-20190920",
            "filling-tool-version": "retesteth-0.0.1+commit.0ae18aef.Linux.g++",
            "lllcversion": "Version: 0.5.12-develop.2019.9.13+commit.2d601a4f.Linux.g++",
            "source": "src/GeneralStateTestsFiller/stSLoadTest/sloadGasCostFiller.json",
            "sourceHash": "478582c0b2c5977ffa9a57c3ba417179cb42f2e67404d1ecc60346edaac6110f"
        },
        "genesisBlockHeader": {
            "bloom": "0x00000000000000000000000000000000000000000000000000000000000000000000000000000000000000000000000000000000000000000000000000000000000000000000000000000000000000000000000000000000000000000000000000000000000000000000000000000000000000000000000000000000000000000000000000000000000000000000000000000000000000000000000000000000000000000000000000000000000000000000000000000000000000000000000000000000000000000000000000000000000000000000000000000000000000000000000000000000000000000000000000000000000000000000000000000000",
            "coinbase": "0x2adc25665018aa1fe0e6bc666dac8fc2697ff9ba",
            "difficulty": "0x20000",
            "extraData": "0x00",
            "gasLimit": "0x2540be400",
            "gasUsed": "0x0",
            "hash": "0x606417f0e60cf31878a77978f8bc3a5d440d46821976e0867e7e6cd4426dc2ec",
            "mixHash": "0x0000000000000000000000000000000000000000000000000000000000000000",
            "nonce": "0x0000000000000000",
            "number": "0x0",
            "parentHash": "0x0000000000000000000000000000000000000000000000000000000000000000",
            "receiptTrie": "0x56e81f171bcc55a6ff8345e692c0f86e5b48e01b996cadc001622fb5e363b421",
            "stateRoot": "0x3ad323ff8041985af01efa67df4fd99736805bb43b4fb4133780d0a2a9e49e2f",
            "timestamp": "0x0",
            "transactionsTrie": "0x56e81f171bcc55a6ff8345e692c0f86e5b48e01b996cadc001622fb5e363b421",
            "uncleHash": "0x1dcc4de8dec75d7aab85b567b6ccd41ad312451b948a7413f0a142fd40d49347"
        },
        "pre": {
            "0x1000000000000000000000000000000000000000": {
                "balance": "0x00",
                "code": "0x5a80545a905090036005900360015500",
                "nonce": "0x00",
                "storage": {}
            },
            "0xa94f5374fce5edbc8e2a8697c15331677e6ebf0b": {
                "balance": "0x3635c9adc5dea00000",
                "code": "0x",
                "nonce": "0x00",
                "storage": {}
            }
        },
        "postState": {
            "0xa94f5374fce5edbc8e2a8697c15331677e6ebf0b": {
                "code": "0x",
                "nonce": "0x01",
                "balance": "0x3635c9adc5de9f5c9a",
                "storage": {}
            },
            "0x2adc25665018aa1fe0e6bc666dac8fc2697ff9ba": {
                "code": "0x",
                "nonce": "0x00",
                "balance": "0x1bc16d674ec8a366",
                "storage": {}
            },
            "0x1000000000000000000000000000000000000000": {
                "code": "0x5a80545a905090036005900360015500",
                "nonce": "0x00",
                "balance": "0x00",
                "storage": {
                    "0x01": "0x0320"
                }
            }
        },
        "network": "Istanbul",
        "sealEngine": "NoProof",
        "lastblockhash": "0x6ce61e219780a96456650ae2ba6439e5ff4c9e50d8aea6a1f19057c2a5dd0bb3",
        "genesisRLP": "0xf901faf901f5a00000000000000000000000000000000000000000000000000000000000000000a01dcc4de8dec75d7aab85b567b6ccd41ad312451b948a7413f0a142fd40d49347942adc25665018aa1fe0e6bc666dac8fc2697ff9baa03ad323ff8041985af01efa67df4fd99736805bb43b4fb4133780d0a2a9e49e2fa056e81f171bcc55a6ff8345e692c0f86e5b48e01b996cadc001622fb5e363b421a056e81f171bcc55a6ff8345e692c0f86e5b48e01b996cadc001622fb5e363b421b901000000000000000000000000000000000000000000000000000000000000000000000000000000000000000000000000000000000000000000000000000000000000000000000000000000000000000000000000000000000000000000000000000000000000000000000000000000000000000000000000000000000000000000000000000000000000000000000000000000000000000000000000000000000000000000000000000000000000000000000000000000000000000000000000000000000000000000000000000000000000000000000000000000000000000000000000000000000000000000000000000000000000000000000000000000000083020000808502540be400808000a00000000000000000000000000000000000000000000000000000000000000000880000000000000000c0c0",
        "blocks": [
            {
                "rlp": "0xf90262f901f9a0606417f0e60cf31878a77978f8bc3a5d440d46821976e0867e7e6cd4426dc2eca01dcc4de8dec75d7aab85b567b6ccd41ad312451b948a7413f0a142fd40d49347942adc25665018aa1fe0e6bc666dac8fc2697ff9baa0aec708d41234467723c80574e31805043214c2cc57b4b8503908977a08d43fb0a016e5b063445220e09ec13fd1aed3931266d500508f54a9e99ede6f1a1571fe3ea0cdac463f37b122d3bf5d8665846acdc66f76cba8d11e52836ff3513bdaff0cc6b90100000000000000000000000000000000000000000000000000000000000000000000000000000000000000000000000000000000000000000000000000000000000000000000000000000000000000000000000000000000000000000000000000000000000000000000000000000000000000000000000000000000000000000000000000000000000000000000000000000000000000000000000000000000000000000000000000000000000000000000000000000000000000000000000000000000000000000000000000000000000000000000000000000000000000000000000000000000000000000000000000000000000000000000000000000000008302000001850254a0e6f882a3668203e800a00000000000000000000000000000000000000000000000000000000000000000880000000000000000f863f86180018405f5e10094100000000000000000000000000000000000000080801ba09f8ca9700e6a3b71055abc8dfc192d898370672b4140371b6b471abcb621fc23a06acc85dae9d6c1cb18b37eade48cc511b4611285cd673725d15bb60a53cf871ac0",
                "blockHeader": {
                    "bloom": "0x00000000000000000000000000000000000000000000000000000000000000000000000000000000000000000000000000000000000000000000000000000000000000000000000000000000000000000000000000000000000000000000000000000000000000000000000000000000000000000000000000000000000000000000000000000000000000000000000000000000000000000000000000000000000000000000000000000000000000000000000000000000000000000000000000000000000000000000000000000000000000000000000000000000000000000000000000000000000000000000000000000000000000000000000000000000",
                    "coinbase": "0x2adc25665018aa1fe0e6bc666dac8fc2697ff9ba",
                    "difficulty": "0x20000",
                    "extraData": "0x00",
                    "gasLimit": "0x254a0e6f8",
                    "gasUsed": "0xa366",
                    "hash": "0x6ce61e219780a96456650ae2ba6439e5ff4c9e50d8aea6a1f19057c2a5dd0bb3",
                    "mixHash": "0x0000000000000000000000000000000000000000000000000000000000000000",
                    "nonce": "0x0000000000000000",
                    "number": "0x1",
                    "parentHash": "0x606417f0e60cf31878a77978f8bc3a5d440d46821976e0867e7e6cd4426dc2ec",
                    "receiptTrie": "0xcdac463f37b122d3bf5d8665846acdc66f76cba8d11e52836ff3513bdaff0cc6",
                    "stateRoot": "0xaec708d41234467723c80574e31805043214c2cc57b4b8503908977a08d43fb0",
                    "timestamp": "0x3e8",
                    "transactionsTrie": "0x16e5b063445220e09ec13fd1aed3931266d500508f54a9e99ede6f1a1571fe3e",
                    "uncleHash": "0x1dcc4de8dec75d7aab85b567b6ccd41ad312451b948a7413f0a142fd40d49347"
                },
                "transactions": [
                    {
                        "data": "0x",
                        "gasLimit": "0x05f5e100",
                        "gasPrice": "0x01",
                        "nonce": "0x00",
                        "to": "0x1000000000000000000000000000000000000000",
                        "value": "0x00",
                        "v": "0x1b",
                        "r": "0x9f8ca9700e6a3b71055abc8dfc192d898370672b4140371b6b471abcb621fc23",
                        "s": "0x6acc85dae9d6c1cb18b37eade48cc511b4611285cd673725d15bb60a53cf871a"
                    }
                ],
                "transactionRlps": [
                    "f86180018405f5e10094100000000000000000000000000000000000000080801ba09f8ca9700e6a3b71055abc8dfc192d898370672b4140371b6b471abcb621fc23a06acc85dae9d6c1cb18b37eade48cc511b4611285cd673725d15bb60a53cf871a"
                ],
                "env": {
                    "currentCoinbase": "0x2adc25665018aa1fe0e6bc666dac8fc2697ff9ba",
                    "currentDifficulty": "0x20000",
                    "currentGasLimit": "0x254a0e6f8",
                    "currentNumber": "0x1",
                    "currentTimestamp": "0x3e8",
                    "previousHash": "0x606417f0e60cf31878a77978f8bc3a5d440d46821976e0867e7e6cd4426dc2ec"
                }
            }
        ]
    }
}